{
  "contractName": "EventManagement",
  "abi": [
    {
      "anonymous": false,
      "inputs": [
        {
          "indexed": true,
          "internalType": "uint256",
          "name": "eventId",
          "type": "uint256"
        },
        {
          "indexed": false,
          "internalType": "string",
          "name": "name",
          "type": "string"
        },
        {
          "indexed": false,
          "internalType": "uint256",
          "name": "date",
          "type": "uint256"
        },
        {
          "indexed": false,
          "internalType": "uint256",
          "name": "time",
          "type": "uint256"
        },
        {
          "indexed": false,
          "internalType": "uint256",
          "name": "price",
          "type": "uint256"
        },
        {
          "indexed": false,
          "internalType": "uint256",
          "name": "totalTickets",
          "type": "uint256"
        }
      ],
      "name": "EventCreated",
      "type": "event"
    },
    {
      "inputs": [
        {
          "internalType": "uint256",
          "name": "",
          "type": "uint256"
        }
      ],
      "name": "events",
      "outputs": [
        {
          "internalType": "string",
          "name": "name",
          "type": "string"
        },
        {
          "internalType": "uint256",
          "name": "date",
          "type": "uint256"
        },
        {
          "internalType": "uint256",
          "name": "time",
          "type": "uint256"
        },
        {
          "internalType": "uint256",
          "name": "price",
          "type": "uint256"
        },
        {
          "internalType": "uint256",
          "name": "totalTickets",
          "type": "uint256"
        },
        {
          "internalType": "address",
          "name": "organizer",
          "type": "address"
        }
      ],
      "stateMutability": "view",
      "type": "function",
      "constant": true
    },
    {
      "inputs": [
        {
          "internalType": "uint256",
          "name": "",
          "type": "uint256"
        },
        {
          "internalType": "address",
          "name": "",
          "type": "address"
        }
      ],
      "name": "ticketsSold",
      "outputs": [
        {
          "internalType": "uint256",
          "name": "",
          "type": "uint256"
        }
      ],
      "stateMutability": "view",
      "type": "function",
      "constant": true
    },
    {
      "inputs": [
        {
          "internalType": "string",
          "name": "_name",
          "type": "string"
        },
        {
          "internalType": "uint256",
          "name": "_date",
          "type": "uint256"
        },
        {
          "internalType": "uint256",
          "name": "_time",
          "type": "uint256"
        },
        {
          "internalType": "uint256",
          "name": "_price",
          "type": "uint256"
        },
        {
          "internalType": "uint256",
          "name": "_totalTickets",
          "type": "uint256"
        }
      ],
      "name": "createEvent",
      "outputs": [],
      "stateMutability": "nonpayable",
      "type": "function"
    },
    {
      "inputs": [
        {
          "internalType": "uint256",
          "name": "_eventId",
          "type": "uint256"
        },
        {
          "internalType": "uint256",
          "name": "_tickets",
          "type": "uint256"
        }
      ],
      "name": "buyTicket",
      "outputs": [],
      "stateMutability": "payable",
      "type": "function",
      "payable": true
    },
    {
      "inputs": [
        {
          "internalType": "uint256",
          "name": "_eventId",
          "type": "uint256"
        }
      ],
      "name": "checkTickets",
      "outputs": [
        {
          "internalType": "uint256",
          "name": "",
          "type": "uint256"
        }
      ],
      "stateMutability": "view",
      "type": "function",
      "constant": true
    },
    {
      "inputs": [],
      "name": "getTotalEvents",
      "outputs": [
        {
          "internalType": "uint256",
          "name": "",
          "type": "uint256"
        }
      ],
      "stateMutability": "view",
      "type": "function",
      "constant": true
    },
    {
      "inputs": [
        {
          "internalType": "uint256",
          "name": "_eventId",
          "type": "uint256"
        }
      ],
      "name": "getTotalTickets",
      "outputs": [
        {
          "internalType": "uint256",
          "name": "",
          "type": "uint256"
        }
      ],
      "stateMutability": "view",
      "type": "function",
      "constant": true
    },
    {
      "inputs": [
        {
          "internalType": "uint256",
          "name": "_eventId",
          "type": "uint256"
        },
        {
          "internalType": "string",
          "name": "_name",
          "type": "string"
        },
        {
          "internalType": "uint256",
          "name": "_date",
          "type": "uint256"
        },
        {
          "internalType": "uint256",
          "name": "_time",
          "type": "uint256"
        },
        {
          "internalType": "uint256",
          "name": "_price",
          "type": "uint256"
        },
        {
          "internalType": "uint256",
          "name": "_totalTickets",
          "type": "uint256"
        }
      ],
      "name": "updateEvent",
      "outputs": [],
      "stateMutability": "nonpayable",
      "type": "function"
    },
    {
      "inputs": [
        {
          "internalType": "uint256",
          "name": "_eventId",
          "type": "uint256"
        }
      ],
      "name": "deleteEvent",
      "outputs": [],
      "stateMutability": "nonpayable",
      "type": "function"
    },
    {
      "inputs": [
        {
          "internalType": "uint256",
          "name": "_eventId",
          "type": "uint256"
        }
      ],
      "name": "getEventDetails",
      "outputs": [
        {
          "internalType": "string",
          "name": "name",
          "type": "string"
        },
        {
          "internalType": "uint256",
          "name": "date",
          "type": "uint256"
        },
        {
          "internalType": "uint256",
          "name": "time",
          "type": "uint256"
        },
        {
          "internalType": "uint256",
          "name": "price",
          "type": "uint256"
        },
        {
          "internalType": "uint256",
          "name": "totalTickets",
          "type": "uint256"
        },
        {
          "internalType": "address",
          "name": "organizer",
          "type": "address"
        }
      ],
      "stateMutability": "view",
      "type": "function",
      "constant": true
    },
    {
      "inputs": [
        {
          "internalType": "uint256",
          "name": "_eventId",
          "type": "uint256"
        },
        {
          "internalType": "address",
          "name": "_to",
          "type": "address"
        }
      ],
      "name": "incrementTicketsSold",
      "outputs": [],
      "stateMutability": "nonpayable",
      "type": "function"
    }
  ],
  "bytecode": "0x608060405234801561001057600080fd5b506116d8806100206000396000f3fe60806040526004361061009c5760003560e01c80632fe91d3f116100645780632fe91d3f146101a257806337fbea15146101df5780636160694014610208578063dbf3f3c914610233578063ec38d5a01461025c578063f8749a581461029e5761009c565b80630b791430146100a157806314545076146100e3578063189062871461010c57806322508e5d14610149578063298ec20814610186575b600080fd5b3480156100ad57600080fd5b506100c860048036038101906100c39190610c25565b6102c7565b6040516100da96959493929190610d32565b60405180910390f35b3480156100ef57600080fd5b5061010a60048036038101906101059190610dc6565b6103bb565b005b34801561011857600080fd5b50610133600480360381019061012e9190610c25565b610425565b6040516101409190610e06565b60405180910390f35b34801561015557600080fd5b50610170600480360381019061016b9190610c25565b610453565b60405161017d9190610e06565b60405180910390f35b6101a0600480360381019061019b9190610e21565b6104ad565b005b3480156101ae57600080fd5b506101c960048036038101906101c49190610dc6565b61062f565b6040516101d69190610e06565b60405180910390f35b3480156101eb57600080fd5b5061020660048036038101906102019190610f96565b610654565b005b34801561021457600080fd5b5061021d61076d565b60405161022a9190610e06565b60405180910390f35b34801561023f57600080fd5b5061025a6004803603810190610255919061103f565b610779565b005b34801561026857600080fd5b50610283600480360381019061027e9190610c25565b6108cc565b60405161029596959493929190610d32565b60405180910390f35b3480156102aa57600080fd5b506102c560048036038101906102c09190610c25565b610a4a565b005b600081815481106102d757600080fd5b90600052602060002090600602016000915090508060000180546102fa90611105565b80601f016020809104026020016040519081016040528092919081815260200182805461032690611105565b80156103735780601f1061034857610100808354040283529160200191610373565b820191906000526020600020905b81548152906001019060200180831161035657829003601f168201915b5050505050908060010154908060020154908060030154908060040154908060050160009054906101000a900473ffffffffffffffffffffffffffffffffffffffff16905086565b6001600083815260200190815260200160002060008273ffffffffffffffffffffffffffffffffffffffff1673ffffffffffffffffffffffffffffffffffffffff168152602001908152602001600020600081548092919061041c90611165565b91905055505050565b600080828154811061043a576104396111ad565b5b9060005260206000209060060201600401549050919050565b60006001600083815260200190815260200160002060003373ffffffffffffffffffffffffffffffffffffffff1673ffffffffffffffffffffffffffffffffffffffff168152602001908152602001600020549050919050565b80600083815481106104c2576104c16111ad565b5b9060005260206000209060060201600301546104de91906111dc565b341015610520576040517f08c379a00000000000000000000000000000000000000000000000000000000081526004016105179061126a565b60405180910390fd5b8060008381548110610535576105346111ad565b5b9060005260206000209060060201600401541015610588576040517f08c379a000000000000000000000000000000000000000000000000000000000815260040161057f906112d6565b60405180910390fd5b806001600084815260200190815260200160002060003373ffffffffffffffffffffffffffffffffffffffff1673ffffffffffffffffffffffffffffffffffffffff16815260200190815260200160002060008282546105e891906112f6565b925050819055508060008381548110610604576106036111ad565b5b90600052602060002090600602016004016000828254610624919061132a565b925050819055505050565b6001602052816000526040600020602052806000526040600020600091509150505481565b8560008181548110610669576106686111ad565b5b906000526020600020906006020160050160009054906101000a900473ffffffffffffffffffffffffffffffffffffffff1673ffffffffffffffffffffffffffffffffffffffff163373ffffffffffffffffffffffffffffffffffffffff1614610708576040517f08c379a00000000000000000000000000000000000000000000000000000000081526004016106ff906113aa565b60405180910390fd5b600080888154811061071d5761071c6111ad565b5b906000526020600020906006020190508681600001908161073e9190611576565b508581600101819055508481600201819055508381600301819055508281600401819055505050505050505050565b60008080549050905090565b60006040518060c001604052808781526020018681526020018581526020018481526020018381526020013373ffffffffffffffffffffffffffffffffffffffff168152509050600081908060018154018082558091505060019003906000526020600020906006020160009091909190915060008201518160000190816108019190611576565b506020820151816001015560408201518160020155606082015181600301556080820151816004015560a08201518160050160006101000a81548173ffffffffffffffffffffffffffffffffffffffff021916908373ffffffffffffffffffffffffffffffffffffffff16021790555050506001600080549050610885919061132a565b7fd023c274861efa10779d76bbd0627e0bf4cae2ffd5ba380c748f3e8c90adb82b87878787876040516108bc959493929190611648565b60405180910390a2505050505050565b6060600080600080600080600088815481106108eb576108ea6111ad565b5b90600052602060002090600602016040518060c001604052908160008201805461091490611105565b80601f016020809104026020016040519081016040528092919081815260200182805461094090611105565b801561098d5780601f106109625761010080835404028352916020019161098d565b820191906000526020600020905b81548152906001019060200180831161097057829003601f168201915b50505050508152602001600182015481526020016002820154815260200160038201548152602001600482015481526020016005820160009054906101000a900473ffffffffffffffffffffffffffffffffffffffff1673ffffffffffffffffffffffffffffffffffffffff1673ffffffffffffffffffffffffffffffffffffffff16815250509050806000015181602001518260400151836060015184608001518560a001519650965096509650965096505091939550919395565b8060008181548110610a5f57610a5e6111ad565b5b906000526020600020906006020160050160009054906101000a900473ffffffffffffffffffffffffffffffffffffffff1673ffffffffffffffffffffffffffffffffffffffff163373ffffffffffffffffffffffffffffffffffffffff1614610afe576040517f08c379a0000000000000000000000000000000000000000000000000000000008152600401610af5906113aa565b60405180910390fd5b60008281548110610b1257610b116111ad565b5b906000526020600020906006020160008082016000610b319190610b7e565b60018201600090556002820160009055600382016000905560048201600090556005820160006101000a81549073ffffffffffffffffffffffffffffffffffffffff021916905550505050565b508054610b8a90611105565b6000825580601f10610b9c5750610bbb565b601f016020900490600052602060002090810190610bba9190610bbe565b5b50565b5b80821115610bd7576000816000905550600101610bbf565b5090565b6000604051905090565b600080fd5b600080fd5b6000819050919050565b610c0281610bef565b8114610c0d57600080fd5b50565b600081359050610c1f81610bf9565b92915050565b600060208284031215610c3b57610c3a610be5565b5b6000610c4984828501610c10565b91505092915050565b600081519050919050565b600082825260208201905092915050565b60005b83811015610c8c578082015181840152602081019050610c71565b60008484015250505050565b6000601f19601f8301169050919050565b6000610cb482610c52565b610cbe8185610c5d565b9350610cce818560208601610c6e565b610cd781610c98565b840191505092915050565b610ceb81610bef565b82525050565b600073ffffffffffffffffffffffffffffffffffffffff82169050919050565b6000610d1c82610cf1565b9050919050565b610d2c81610d11565b82525050565b600060c0820190508181036000830152610d4c8189610ca9565b9050610d5b6020830188610ce2565b610d686040830187610ce2565b610d756060830186610ce2565b610d826080830185610ce2565b610d8f60a0830184610d23565b979650505050505050565b610da381610d11565b8114610dae57600080fd5b50565b600081359050610dc081610d9a565b92915050565b60008060408385031215610ddd57610ddc610be5565b5b6000610deb85828601610c10565b9250506020610dfc85828601610db1565b9150509250929050565b6000602082019050610e1b6000830184610ce2565b92915050565b60008060408385031215610e3857610e37610be5565b5b6000610e4685828601610c10565b9250506020610e5785828601610c10565b9150509250929050565b600080fd5b600080fd5b7f4e487b7100000000000000000000000000000000000000000000000000000000600052604160045260246000fd5b610ea382610c98565b810181811067ffffffffffffffff82111715610ec257610ec1610e6b565b5b80604052505050565b6000610ed5610bdb565b9050610ee18282610e9a565b919050565b600067ffffffffffffffff821115610f0157610f00610e6b565b5b610f0a82610c98565b9050602081019050919050565b82818337600083830152505050565b6000610f39610f3484610ee6565b610ecb565b905082815260208101848484011115610f5557610f54610e66565b5b610f60848285610f17565b509392505050565b600082601f830112610f7d57610f7c610e61565b5b8135610f8d848260208601610f26565b91505092915050565b60008060008060008060c08789031215610fb357610fb2610be5565b5b6000610fc189828a01610c10565b965050602087013567ffffffffffffffff811115610fe257610fe1610bea565b5b610fee89828a01610f68565b9550506040610fff89828a01610c10565b945050606061101089828a01610c10565b935050608061102189828a01610c10565b92505060a061103289828a01610c10565b9150509295509295509295565b600080600080600060a0868803121561105b5761105a610be5565b5b600086013567ffffffffffffffff81111561107957611078610bea565b5b61108588828901610f68565b955050602061109688828901610c10565b94505060406110a788828901610c10565b93505060606110b888828901610c10565b92505060806110c988828901610c10565b9150509295509295909350565b7f4e487b7100000000000000000000000000000000000000000000000000000000600052602260045260246000fd5b6000600282049050600182168061111d57607f821691505b6020821081036111305761112f6110d6565b5b50919050565b7f4e487b7100000000000000000000000000000000000000000000000000000000600052601160045260246000fd5b600061117082610bef565b91507fffffffffffffffffffffffffffffffffffffffffffffffffffffffffffffffff82036111a2576111a1611136565b5b600182019050919050565b7f4e487b7100000000000000000000000000000000000000000000000000000000600052603260045260246000fd5b60006111e782610bef565b91506111f283610bef565b925082820261120081610bef565b9150828204841483151761121757611216611136565b5b5092915050565b7f4e6f7420656e6f7567682045746865722070726f76696465642e000000000000600082015250565b6000611254601a83610c5d565b915061125f8261121e565b602082019050919050565b6000602082019050818103600083015261128381611247565b9050919050565b7f4e6f7420656e6f756768207469636b65747320617661696c61626c652e000000600082015250565b60006112c0601d83610c5d565b91506112cb8261128a565b602082019050919050565b600060208201905081810360008301526112ef816112b3565b9050919050565b600061130182610bef565b915061130c83610bef565b925082820190508082111561132457611323611136565b5b92915050565b600061133582610bef565b915061134083610bef565b925082820390508181111561135857611357611136565b5b92915050565b7f43616c6c6572206973206e6f74206576656e74206f7267616e697a6572000000600082015250565b6000611394601d83610c5d565b915061139f8261135e565b602082019050919050565b600060208201905081810360008301526113c381611387565b9050919050565b60008190508160005260206000209050919050565b60006020601f8301049050919050565b600082821b905092915050565b60006008830261142c7fffffffffffffffffffffffffffffffffffffffffffffffffffffffffffffffff826113ef565b61143686836113ef565b95508019841693508086168417925050509392505050565b6000819050919050565b600061147361146e61146984610bef565b61144e565b610bef565b9050919050565b6000819050919050565b61148d83611458565b6114a16114998261147a565b8484546113fc565b825550505050565b600090565b6114b66114a9565b6114c1818484611484565b505050565b5b818110156114e5576114da6000826114ae565b6001810190506114c7565b5050565b601f82111561152a576114fb816113ca565b611504846113df565b81016020851015611513578190505b61152761151f856113df565b8301826114c6565b50505b505050565b600082821c905092915050565b600061154d6000198460080261152f565b1980831691505092915050565b6000611566838361153c565b9150826002028217905092915050565b61157f82610c52565b67ffffffffffffffff81111561159857611597610e6b565b5b6115a28254611105565b6115ad8282856114e9565b600060209050601f8311600181146115e057600084156115ce578287015190505b6115d8858261155a565b865550611640565b601f1984166115ee866113ca565b60005b82811015611616578489015182556001820191506020850194506020810190506115f1565b86831015611633578489015161162f601f89168261153c565b8355505b6001600288020188555050505b505050505050565b600060a08201905081810360008301526116628188610ca9565b90506116716020830187610ce2565b61167e6040830186610ce2565b61168b6060830185610ce2565b6116986080830184610ce2565b969550505050505056fea26469706673582212200c186fb8da42345b5a0490d3f4749dcc2d997c568860bb1a0e11ea91b19e250464736f6c63430008110033",
  "immutableReferences": {},
  "source": "// SPDX-License-Identifier: MIT\npragma solidity ^0.8.0;\n\ncontract EventManagement {\n    struct Event {\n        string name;\n        uint256 date;\n        uint256 time;\n        uint256 price;\n        uint256 totalTickets;\n        address organizer;\n    }\n\n    Event[] public events;\n\n    mapping(uint256 => mapping(address => uint256)) public ticketsSold;\n\n    event EventCreated(\n        uint256 indexed eventId,\n        string name,\n        uint256 date,\n        uint256 time,\n        uint256 price,\n        uint256 totalTickets\n    );\n\n    modifier onlyOrganizer(uint256 _eventId) {\n        require(\n            msg.sender == events[_eventId].organizer,\n            \"Caller is not event organizer\"\n        );\n        _;\n    }\n\n    function createEvent(\n        string memory _name,\n        uint256 _date,\n        uint256 _time,\n        uint256 _price,\n        uint256 _totalTickets\n    ) public {\n        Event memory newEvent = Event(\n            _name,\n            _date,\n            _time,\n            _price,\n            _totalTickets,\n            msg.sender\n        );\n        events.push(newEvent);\n        emit EventCreated(\n            events.length - 1,\n            _name,\n            _date,\n            _time,\n            _price,\n            _totalTickets\n        );\n    }\n\n    function buyTicket(uint256 _eventId, uint256 _tickets) public payable {\n        require(\n            msg.value >= events[_eventId].price * _tickets,\n            \"Not enough Ether provided.\"\n        );\n        require(\n            events[_eventId].totalTickets >= _tickets,\n            \"Not enough tickets available.\"\n        );\n        ticketsSold[_eventId][msg.sender] += _tickets;\n        events[_eventId].totalTickets -= _tickets;\n    }\n\n    function checkTickets(uint256 _eventId) public view returns (uint256) {\n        return ticketsSold[_eventId][msg.sender];\n    }\n\n    function getTotalEvents() public view returns (uint256) {\n        return events.length;\n    }\n\n    function getTotalTickets(uint256 _eventId) public view returns (uint256) {\n        return events[_eventId].totalTickets;\n    }\n\n    function updateEvent(\n        uint256 _eventId,\n        string memory _name,\n        uint256 _date,\n        uint256 _time,\n        uint256 _price,\n        uint256 _totalTickets\n    ) public onlyOrganizer(_eventId) {\n        Event storage myEvent = events[_eventId];\n        myEvent.name = _name;\n        myEvent.date = _date;\n        myEvent.time = _time;\n        myEvent.price = _price;\n        myEvent.totalTickets = _totalTickets;\n    }\n\n    function deleteEvent(uint256 _eventId) public onlyOrganizer(_eventId) {\n        delete events[_eventId];\n    }\n\n    function getEventDetails(\n        uint256 _eventId\n    )\n        public\n        view\n        returns (\n            string memory name,\n            uint256 date,\n            uint256 time,\n            uint256 price,\n            uint256 totalTickets,\n            address organizer\n        )\n    {\n        Event memory myEvent = events[_eventId];\n        return (\n            myEvent.name,\n            myEvent.date,\n            myEvent.time,\n            myEvent.price,\n            myEvent.totalTickets,\n            myEvent.organizer\n        );\n    }\n    // Function to increment the number of tickets sold for a specific event to a specific address\n    function incrementTicketsSold(uint256 _eventId, address _to) public {\n        ticketsSold[_eventId][_to]++;\n    }\n}\n",
  "sourcePath": "/home/lothbrok/Documents/projects/ticketing-system/smart_contracts/contracts/EventManagement.sol",
  "compiler": {
    "name": "solc",
    "version": "0.8.17+commit.8df45f5f.Emscripten.clang"
  },
  "schemaVersion": "3.4.16",
  "updatedAt": "2024-03-30T16:39:10.359Z",
  "networkType": "ethereum",
  "devdoc": {
    "kind": "dev",
    "methods": {},
    "version": 1
  },
  "userdoc": {
    "kind": "user",
    "methods": {},
    "version": 1
  }
}