{
  "contractName": "Ticket",
  "abi": [
    {
      "inputs": [
        {
          "internalType": "contract EventManagement",
          "name": "_eventManagement",
          "type": "address"
        }
      ],
      "stateMutability": "nonpayable",
      "type": "constructor"
    },
    {
      "anonymous": false,
      "inputs": [
        {
          "indexed": true,
          "internalType": "address",
          "name": "_to",
          "type": "address"
        },
        {
          "indexed": true,
          "internalType": "uint256",
          "name": "_eventId",
          "type": "uint256"
        }
      ],
      "name": "TicketIssued",
      "type": "event"
    },
    {
      "inputs": [],
      "name": "eventManagement",
      "outputs": [
        {
          "internalType": "contract EventManagement",
          "name": "",
          "type": "address"
        }
      ],
      "stateMutability": "view",
      "type": "function",
      "constant": true
    },
    {
      "inputs": [
        {
          "internalType": "address",
          "name": "",
          "type": "address"
        },
        {
          "internalType": "uint256",
          "name": "",
          "type": "uint256"
        }
      ],
      "name": "tickets",
      "outputs": [
        {
          "internalType": "bool",
          "name": "",
          "type": "bool"
        }
      ],
      "stateMutability": "view",
      "type": "function",
      "constant": true
    },
    {
      "inputs": [
        {
          "internalType": "address",
          "name": "_to",
          "type": "address"
        },
        {
          "internalType": "uint256",
          "name": "_eventId",
          "type": "uint256"
        }
      ],
      "name": "issueTicket",
      "outputs": [],
      "stateMutability": "nonpayable",
      "type": "function"
    },
    {
      "inputs": [
        {
          "internalType": "address",
          "name": "_to",
          "type": "address"
        },
        {
          "internalType": "uint256",
          "name": "_eventId",
          "type": "uint256"
        }
      ],
      "name": "transferTicket",
      "outputs": [],
      "stateMutability": "nonpayable",
      "type": "function"
    },
    {
      "inputs": [
        {
          "internalType": "address",
          "name": "_owner",
          "type": "address"
        },
        {
          "internalType": "uint256",
          "name": "_eventId",
          "type": "uint256"
        }
      ],
      "name": "getTicketDetails",
      "outputs": [
        {
          "internalType": "bool",
          "name": "hasTicket",
          "type": "bool"
        }
      ],
      "stateMutability": "view",
      "type": "function",
      "constant": true
    }
  ],
  "bytecode": "0x608060405234801561001057600080fd5b50604051610d21380380610d21833981810160405281019061003291906100ed565b806000806101000a81548173ffffffffffffffffffffffffffffffffffffffff021916908373ffffffffffffffffffffffffffffffffffffffff1602179055505061011a565b600080fd5b600073ffffffffffffffffffffffffffffffffffffffff82169050919050565b60006100a88261007d565b9050919050565b60006100ba8261009d565b9050919050565b6100ca816100af565b81146100d557600080fd5b50565b6000815190506100e7816100c1565b92915050565b60006020828403121561010357610102610078565b5b6000610111848285016100d8565b91505092915050565b610bf8806101296000396000f3fe608060405234801561001057600080fd5b50600436106100575760003560e01c806351958a561461005c5780635baecc51146100785780638872e21114610094578063dae7a13c146100b2578063ed9a2ea3146100e2575b600080fd5b610076600480360381019061007191906107fb565b610112565b005b610092600480360381019061008d91906107fb565b610284565b005b61009c6106a7565b6040516100a9919061089a565b60405180910390f35b6100cc60048036038101906100c791906107fb565b6106cb565b6040516100d991906108d0565b60405180910390f35b6100fc60048036038101906100f791906107fb565b6106fa565b60405161010991906108d0565b60405180910390f35b600160003373ffffffffffffffffffffffffffffffffffffffff1673ffffffffffffffffffffffffffffffffffffffff168152602001908152602001600020600082815260200190815260200160002060009054906101000a900460ff166101af576040517f08c379a00000000000000000000000000000000000000000000000000000000081526004016101a69061096e565b60405180910390fd5b6000600160003373ffffffffffffffffffffffffffffffffffffffff1673ffffffffffffffffffffffffffffffffffffffff168152602001908152602001600020600083815260200190815260200160002060006101000a81548160ff02191690831515021790555060018060008473ffffffffffffffffffffffffffffffffffffffff1673ffffffffffffffffffffffffffffffffffffffff168152602001908152602001600020600083815260200190815260200160002060006101000a81548160ff0219169083151502179055505050565b8060008054906101000a900473ffffffffffffffffffffffffffffffffffffffff1673ffffffffffffffffffffffffffffffffffffffff1663616069406040518163ffffffff1660e01b8152600401602060405180830381865afa1580156102f0573d6000803e3d6000fd5b505050506040513d601f19601f8201168201806040525081019061031491906109a3565b8110610355576040517f08c379a000000000000000000000000000000000000000000000000000000000815260040161034c90610a1c565b60405180910390fd5b600160008473ffffffffffffffffffffffffffffffffffffffff1673ffffffffffffffffffffffffffffffffffffffff168152602001908152602001600020600083815260200190815260200160002060009054906101000a900460ff16156103f3576040517f08c379a00000000000000000000000000000000000000000000000000000000081526004016103ea90610aae565b60405180910390fd5b60008054906101000a900473ffffffffffffffffffffffffffffffffffffffff1673ffffffffffffffffffffffffffffffffffffffff166318906287836040518263ffffffff1660e01b815260040161044c9190610add565b602060405180830381865afa158015610469573d6000803e3d6000fd5b505050506040513d601f19601f8201168201806040525081019061048d91906109a3565b60008054906101000a900473ffffffffffffffffffffffffffffffffffffffff1673ffffffffffffffffffffffffffffffffffffffff16632fe91d3f84866040518363ffffffff1660e01b81526004016104e8929190610b07565b602060405180830381865afa158015610505573d6000803e3d6000fd5b505050506040513d601f19601f8201168201806040525081019061052991906109a3565b10610569576040517f08c379a000000000000000000000000000000000000000000000000000000000815260040161056090610ba2565b60405180910390fd5b60008054906101000a900473ffffffffffffffffffffffffffffffffffffffff1673ffffffffffffffffffffffffffffffffffffffff16631454507683856040518363ffffffff1660e01b81526004016105c4929190610b07565b600060405180830381600087803b1580156105de57600080fd5b505af11580156105f2573d6000803e3d6000fd5b5050505060018060008573ffffffffffffffffffffffffffffffffffffffff1673ffffffffffffffffffffffffffffffffffffffff168152602001908152602001600020600084815260200190815260200160002060006101000a81548160ff021916908315150217905550818373ffffffffffffffffffffffffffffffffffffffff167f3a2f2023edb3607e15cddcfb04000cd48ff18dfd4b74ffa2246f4c68871f90ca60405160405180910390a3505050565b60008054906101000a900473ffffffffffffffffffffffffffffffffffffffff1681565b60016020528160005260406000206020528060005260406000206000915091509054906101000a900460ff1681565b6000600160008473ffffffffffffffffffffffffffffffffffffffff1673ffffffffffffffffffffffffffffffffffffffff168152602001908152602001600020600083815260200190815260200160002060009054906101000a900460ff16905092915050565b600080fd5b600073ffffffffffffffffffffffffffffffffffffffff82169050919050565b600061079282610767565b9050919050565b6107a281610787565b81146107ad57600080fd5b50565b6000813590506107bf81610799565b92915050565b6000819050919050565b6107d8816107c5565b81146107e357600080fd5b50565b6000813590506107f5816107cf565b92915050565b6000806040838503121561081257610811610762565b5b6000610820858286016107b0565b9250506020610831858286016107e6565b9150509250929050565b6000819050919050565b600061086061085b61085684610767565b61083b565b610767565b9050919050565b600061087282610845565b9050919050565b600061088482610867565b9050919050565b61089481610879565b82525050565b60006020820190506108af600083018461088b565b92915050565b60008115159050919050565b6108ca816108b5565b82525050565b60006020820190506108e560008301846108c1565b92915050565b600082825260208201905092915050565b7f596f7520646f6e277420686176652061207469636b657420666f72207468697360008201527f206576656e740000000000000000000000000000000000000000000000000000602082015250565b60006109586026836108eb565b9150610963826108fc565b604082019050919050565b600060208201905081810360008301526109878161094b565b9050919050565b60008151905061099d816107cf565b92915050565b6000602082840312156109b9576109b8610762565b5b60006109c78482850161098e565b91505092915050565b7f496e76616c6964206576656e7420494400000000000000000000000000000000600082015250565b6000610a066010836108eb565b9150610a11826109d0565b602082019050919050565b60006020820190508181036000830152610a35816109f9565b9050919050565b7f5469636b657420616c72656164792069737375656420746f207468697320616460008201527f647265737320666f7220746865206576656e7400000000000000000000000000602082015250565b6000610a986033836108eb565b9150610aa382610a3c565b604082019050919050565b60006020820190508181036000830152610ac781610a8b565b9050919050565b610ad7816107c5565b82525050565b6000602082019050610af26000830184610ace565b92915050565b610b0181610787565b82525050565b6000604082019050610b1c6000830185610ace565b610b296020830184610af8565b9392505050565b7f4e6f206d6f7265207469636b65747320617661696c61626c6520666f7220746860008201527f6973206576656e74000000000000000000000000000000000000000000000000602082015250565b6000610b8c6028836108eb565b9150610b9782610b30565b604082019050919050565b60006020820190508181036000830152610bbb81610b7f565b905091905056fea264697066735822122061afff3b3a9944aebe10d9fea85e6feed1134641f18113cc160a6099d2f0091c64736f6c63430008110033",
  "immutableReferences": {},
  "source": "// SPDX-License-Identifier: MIT\npragma solidity ^0.8.0;\n\nimport \"./EventManagement.sol\";\n\ncontract Ticket {\n    EventManagement public eventManagement;\n    mapping(address => mapping(uint256 => bool)) public tickets;\n\n    event TicketIssued(address indexed _to, uint256 indexed _eventId);\n\n    modifier validEvent(uint256 _eventId) {\n        require(\n            _eventId < eventManagement.getTotalEvents(),\n            \"Invalid event ID\"\n        );\n        _;\n    }\n\n    constructor(EventManagement _eventManagement) {\n        eventManagement = _eventManagement;\n    }\n\n    function issueTicket(\n        address _to,\n        uint256 _eventId\n    ) public validEvent(_eventId) {\n        require(\n            !tickets[_to][_eventId],\n            \"Ticket already issued to this address for the event\"\n        );\n        require(\n            eventManagement.ticketsSold(_eventId, _to) <\n                eventManagement.getTotalTickets(_eventId),\n            \"No more tickets available for this event\"\n        );\n\n        eventManagement.incrementTicketsSold(_eventId, _to);\n        tickets[_to][_eventId] = true;\n        emit TicketIssued(_to, _eventId);\n    }\n\n    function transferTicket(address _to, uint256 _eventId) public {\n        require(\n            tickets[msg.sender][_eventId],\n            \"You don't have a ticket for this event\"\n        );\n        tickets[msg.sender][_eventId] = false;\n        tickets[_to][_eventId] = true;\n    }\n\n    function getTicketDetails(\n        address _owner,\n        uint256 _eventId\n    ) public view returns (bool hasTicket) {\n        return tickets[_owner][_eventId];\n    }\n}\n",
  "sourcePath": "/home/lothbrok/Documents/projects/ticketing-system/smart_contracts/contracts/Ticket.sol",
  "compiler": {
    "name": "solc",
    "version": "0.8.17+commit.8df45f5f.Emscripten.clang"
  },
  "schemaVersion": "3.4.16",
  "updatedAt": "2024-03-30T16:39:10.352Z",
  "networkType": "ethereum",
  "devdoc": {
    "kind": "dev",
    "methods": {},
    "version": 1
  },
  "userdoc": {
    "kind": "user",
    "methods": {},
    "version": 1
  }
}