{
  "contractName": "EventManagement",
  "abi": [
    {
      "anonymous": false,
      "inputs": [
        {
          "indexed": true,
          "internalType": "uint256",
          "name": "eventId",
          "type": "uint256"
        },
        {
          "indexed": false,
          "internalType": "string",
          "name": "name",
          "type": "string"
        },
        {
          "indexed": false,
          "internalType": "uint256",
          "name": "date",
          "type": "uint256"
        },
        {
          "indexed": false,
          "internalType": "uint256",
          "name": "time",
          "type": "uint256"
        },
        {
          "indexed": false,
          "internalType": "uint256",
          "name": "price",
          "type": "uint256"
        },
        {
          "indexed": false,
          "internalType": "uint256",
          "name": "totalTickets",
          "type": "uint256"
        }
      ],
      "name": "EventCreated",
      "type": "event"
    },
    {
      "inputs": [
        {
          "internalType": "uint256",
          "name": "",
          "type": "uint256"
        }
      ],
      "name": "events",
      "outputs": [
        {
          "internalType": "string",
          "name": "name",
          "type": "string"
        },
        {
          "internalType": "uint256",
          "name": "date",
          "type": "uint256"
        },
        {
          "internalType": "uint256",
          "name": "time",
          "type": "uint256"
        },
        {
          "internalType": "uint256",
          "name": "price",
          "type": "uint256"
        },
        {
          "internalType": "uint256",
          "name": "totalTickets",
          "type": "uint256"
        },
        {
          "internalType": "address",
          "name": "organizer",
          "type": "address"
        }
      ],
      "stateMutability": "view",
      "type": "function",
      "constant": true
    },
    {
      "inputs": [
        {
          "internalType": "uint256",
          "name": "",
          "type": "uint256"
        },
        {
          "internalType": "address",
          "name": "",
          "type": "address"
        }
      ],
      "name": "ticketsSold",
      "outputs": [
        {
          "internalType": "uint256",
          "name": "",
          "type": "uint256"
        }
      ],
      "stateMutability": "view",
      "type": "function",
      "constant": true
    },
    {
      "inputs": [
        {
          "internalType": "string",
          "name": "_name",
          "type": "string"
        },
        {
          "internalType": "uint256",
          "name": "_date",
          "type": "uint256"
        },
        {
          "internalType": "uint256",
          "name": "_time",
          "type": "uint256"
        },
        {
          "internalType": "uint256",
          "name": "_price",
          "type": "uint256"
        },
        {
          "internalType": "uint256",
          "name": "_totalTickets",
          "type": "uint256"
        }
      ],
      "name": "createEvent",
      "outputs": [],
      "stateMutability": "nonpayable",
      "type": "function"
    },
    {
      "inputs": [],
      "name": "getTotalEvents",
      "outputs": [
        {
          "internalType": "uint256",
          "name": "",
          "type": "uint256"
        }
      ],
      "stateMutability": "view",
      "type": "function",
      "constant": true
    },
    {
      "inputs": [
        {
          "internalType": "uint256",
          "name": "_eventId",
          "type": "uint256"
        }
      ],
      "name": "getTotalTickets",
      "outputs": [
        {
          "internalType": "uint256",
          "name": "",
          "type": "uint256"
        }
      ],
      "stateMutability": "view",
      "type": "function",
      "constant": true
    },
    {
      "inputs": [
        {
          "internalType": "uint256",
          "name": "_eventId",
          "type": "uint256"
        },
        {
          "internalType": "address",
          "name": "_user",
          "type": "address"
        }
      ],
      "name": "incrementTicketsSold",
      "outputs": [],
      "stateMutability": "nonpayable",
      "type": "function"
    }
  ],
  "bytecode": "0x608060405234801561001057600080fd5b50610cb6806100206000396000f3fe608060405234801561001057600080fd5b50600436106100625760003560e01c80630b79143014610067578063145450761461009c57806318906287146100b85780632fe91d3f146100e85780636160694014610118578063dbf3f3c914610136575b600080fd5b610081600480360381019061007c91906104a6565b610152565b604051610093969594939291906105b3565b60405180910390f35b6100b660048036038101906100b19190610647565b610246565b005b6100d260048036038101906100cd91906104a6565b6102b0565b6040516100df9190610687565b60405180910390f35b61010260048036038101906100fd9190610647565b6102de565b60405161010f9190610687565b60405180910390f35b610120610303565b60405161012d9190610687565b60405180910390f35b610150600480360381019061014b91906107d7565b61030f565b005b6000818154811061016257600080fd5b90600052602060002090600602016000915090508060000180546101859061089d565b80601f01602080910402602001604051908101604052809291908181526020018280546101b19061089d565b80156101fe5780601f106101d3576101008083540402835291602001916101fe565b820191906000526020600020905b8154815290600101906020018083116101e157829003601f168201915b5050505050908060010154908060020154908060030154908060040154908060050160009054906101000a900473ffffffffffffffffffffffffffffffffffffffff16905086565b6001600083815260200190815260200160002060008273ffffffffffffffffffffffffffffffffffffffff1673ffffffffffffffffffffffffffffffffffffffff16815260200190815260200160002060008154809291906102a7906108fd565b91905055505050565b60008082815481106102c5576102c4610945565b5b9060005260206000209060060201600401549050919050565b6001602052816000526040600020602052806000526040600020600091509150505481565b60008080549050905090565b60006040518060c001604052808781526020018681526020018581526020018481526020018381526020013373ffffffffffffffffffffffffffffffffffffffff16815250908060018154018082558091505060019003906000526020600020906006020160009091909190915060008201518160000190816103929190610b20565b506020820151816001015560408201518160020155606082015181600301556080820151816004015560a08201518160050160006101000a81548173ffffffffffffffffffffffffffffffffffffffff021916908373ffffffffffffffffffffffffffffffffffffffff160217905550505060016000805490506104169190610bf2565b7fd023c274861efa10779d76bbd0627e0bf4cae2ffd5ba380c748f3e8c90adb82b868686868660405161044d959493929190610c26565b60405180910390a25050505050565b6000604051905090565b600080fd5b600080fd5b6000819050919050565b61048381610470565b811461048e57600080fd5b50565b6000813590506104a08161047a565b92915050565b6000602082840312156104bc576104bb610466565b5b60006104ca84828501610491565b91505092915050565b600081519050919050565b600082825260208201905092915050565b60005b8381101561050d5780820151818401526020810190506104f2565b60008484015250505050565b6000601f19601f8301169050919050565b6000610535826104d3565b61053f81856104de565b935061054f8185602086016104ef565b61055881610519565b840191505092915050565b61056c81610470565b82525050565b600073ffffffffffffffffffffffffffffffffffffffff82169050919050565b600061059d82610572565b9050919050565b6105ad81610592565b82525050565b600060c08201905081810360008301526105cd818961052a565b90506105dc6020830188610563565b6105e96040830187610563565b6105f66060830186610563565b6106036080830185610563565b61061060a08301846105a4565b979650505050505050565b61062481610592565b811461062f57600080fd5b50565b6000813590506106418161061b565b92915050565b6000806040838503121561065e5761065d610466565b5b600061066c85828601610491565b925050602061067d85828601610632565b9150509250929050565b600060208201905061069c6000830184610563565b92915050565b600080fd5b600080fd5b7f4e487b7100000000000000000000000000000000000000000000000000000000600052604160045260246000fd5b6106e482610519565b810181811067ffffffffffffffff82111715610703576107026106ac565b5b80604052505050565b600061071661045c565b905061072282826106db565b919050565b600067ffffffffffffffff821115610742576107416106ac565b5b61074b82610519565b9050602081019050919050565b82818337600083830152505050565b600061077a61077584610727565b61070c565b905082815260208101848484011115610796576107956106a7565b5b6107a1848285610758565b509392505050565b600082601f8301126107be576107bd6106a2565b5b81356107ce848260208601610767565b91505092915050565b600080600080600060a086880312156107f3576107f2610466565b5b600086013567ffffffffffffffff8111156108115761081061046b565b5b61081d888289016107a9565b955050602061082e88828901610491565b945050604061083f88828901610491565b935050606061085088828901610491565b925050608061086188828901610491565b9150509295509295909350565b7f4e487b7100000000000000000000000000000000000000000000000000000000600052602260045260246000fd5b600060028204905060018216806108b557607f821691505b6020821081036108c8576108c761086e565b5b50919050565b7f4e487b7100000000000000000000000000000000000000000000000000000000600052601160045260246000fd5b600061090882610470565b91507fffffffffffffffffffffffffffffffffffffffffffffffffffffffffffffffff820361093a576109396108ce565b5b600182019050919050565b7f4e487b7100000000000000000000000000000000000000000000000000000000600052603260045260246000fd5b60008190508160005260206000209050919050565b60006020601f8301049050919050565b600082821b905092915050565b6000600883026109d67fffffffffffffffffffffffffffffffffffffffffffffffffffffffffffffffff82610999565b6109e08683610999565b95508019841693508086168417925050509392505050565b6000819050919050565b6000610a1d610a18610a1384610470565b6109f8565b610470565b9050919050565b6000819050919050565b610a3783610a02565b610a4b610a4382610a24565b8484546109a6565b825550505050565b600090565b610a60610a53565b610a6b818484610a2e565b505050565b5b81811015610a8f57610a84600082610a58565b600181019050610a71565b5050565b601f821115610ad457610aa581610974565b610aae84610989565b81016020851015610abd578190505b610ad1610ac985610989565b830182610a70565b50505b505050565b600082821c905092915050565b6000610af760001984600802610ad9565b1980831691505092915050565b6000610b108383610ae6565b9150826002028217905092915050565b610b29826104d3565b67ffffffffffffffff811115610b4257610b416106ac565b5b610b4c825461089d565b610b57828285610a93565b600060209050601f831160018114610b8a5760008415610b78578287015190505b610b828582610b04565b865550610bea565b601f198416610b9886610974565b60005b82811015610bc057848901518255600182019150602085019450602081019050610b9b565b86831015610bdd5784890151610bd9601f891682610ae6565b8355505b6001600288020188555050505b505050505050565b6000610bfd82610470565b9150610c0883610470565b9250828203905081811115610c2057610c1f6108ce565b5b92915050565b600060a0820190508181036000830152610c40818861052a565b9050610c4f6020830187610563565b610c5c6040830186610563565b610c696060830185610563565b610c766080830184610563565b969550505050505056fea2646970667358221220a333041ecf8767a7e783ab2ef7016b6d4d8a06a90e89be84f165736598a62fe864736f6c63430008110033",
  "immutableReferences": {},
  "source": "// SPDX-License-Identifier: MIT\npragma solidity ^0.8.0;\n\ncontract EventManagement {\n    // Define event struct\n    struct Event {\n        string name;\n        uint256 date;\n        uint256 time;\n        uint256 price;\n        uint256 totalTickets;\n        address organizer;\n    }\n\n    // Array to store events\n    Event[] public events;\n\n    // Mapping to store tickets sold per user for each event\n    mapping(uint256 => mapping(address => uint256)) public ticketsSold;\n\n    // Event creation event\n    event EventCreated(uint256 indexed eventId, string name, uint256 date, uint256 time, uint256 price, uint256 totalTickets);\n\n    // Modifier to check if the caller is the event organizer\n    modifier onlyOrganizer(uint256 _eventId) {\n        require(msg.sender == events[_eventId].organizer, \"Only event organizer can perform this action\");\n        _;\n    }\n\n    // Function to create a new event\n    function createEvent(string memory _name, uint256 _date, uint256 _time, uint256 _price, uint256 _totalTickets) public {\n        events.push(Event(_name, _date, _time, _price, _totalTickets, msg.sender));\n        emit EventCreated(events.length - 1, _name, _date, _time, _price, _totalTickets);\n    }\n\n    // Function to get the total number of events\n    function getTotalEvents() public view returns (uint256) {\n        return events.length;\n    }\n\n    // Function to get the total number of tickets available for an event\n    function getTotalTickets(uint256 _eventId) public view returns (uint256) {\n        return events[_eventId].totalTickets;\n    }\n\n    // Function to increment tickets sold for a specific event and user\n    function incrementTicketsSold(uint256 _eventId, address _user) external {\n        ticketsSold[_eventId][_user]++;\n    }\n}\n",
  "sourcePath": "/home/lothbrok/Documents/projects/ticketing-system/contracts/EventManagement.sol",
  "compiler": {
    "name": "solc",
    "version": "0.8.17+commit.8df45f5f.Emscripten.clang"
  },
  "schemaVersion": "3.4.16",
  "updatedAt": "2024-03-14T08:10:14.033Z",
  "networkType": "ethereum",
  "devdoc": {
    "kind": "dev",
    "methods": {},
    "version": 1
  },
  "userdoc": {
    "kind": "user",
    "methods": {},
    "version": 1
  }
}