{
  "contractName": "Ticket",
  "abi": [
    {
      "inputs": [
        {
          "internalType": "address",
          "name": "_eventManagementAddress",
          "type": "address"
        }
      ],
      "stateMutability": "nonpayable",
      "type": "constructor"
    },
    {
      "anonymous": false,
      "inputs": [
        {
          "indexed": true,
          "internalType": "address",
          "name": "holder",
          "type": "address"
        },
        {
          "indexed": true,
          "internalType": "uint256",
          "name": "eventId",
          "type": "uint256"
        }
      ],
      "name": "TicketIssued",
      "type": "event"
    },
    {
      "inputs": [],
      "name": "eventManagement",
      "outputs": [
        {
          "internalType": "contract EventManagement",
          "name": "",
          "type": "address"
        }
      ],
      "stateMutability": "view",
      "type": "function",
      "constant": true
    },
    {
      "inputs": [
        {
          "internalType": "address",
          "name": "",
          "type": "address"
        },
        {
          "internalType": "uint256",
          "name": "",
          "type": "uint256"
        }
      ],
      "name": "tickets",
      "outputs": [
        {
          "internalType": "bool",
          "name": "",
          "type": "bool"
        }
      ],
      "stateMutability": "view",
      "type": "function",
      "constant": true
    },
    {
      "inputs": [
        {
          "internalType": "address",
          "name": "_to",
          "type": "address"
        },
        {
          "internalType": "uint256",
          "name": "_eventId",
          "type": "uint256"
        }
      ],
      "name": "issueTicket",
      "outputs": [],
      "stateMutability": "nonpayable",
      "type": "function"
    },
    {
      "inputs": [
        {
          "internalType": "address",
          "name": "_holder",
          "type": "address"
        },
        {
          "internalType": "uint256",
          "name": "_eventId",
          "type": "uint256"
        }
      ],
      "name": "isTicketValid",
      "outputs": [
        {
          "internalType": "bool",
          "name": "",
          "type": "bool"
        }
      ],
      "stateMutability": "view",
      "type": "function",
      "constant": true
    }
  ],
  "bytecode": "0x608060405234801561001057600080fd5b50604051610bb6380380610bb6833981810160405281019061003291906100db565b806000806101000a81548173ffffffffffffffffffffffffffffffffffffffff021916908373ffffffffffffffffffffffffffffffffffffffff16021790555050610108565b600080fd5b600073ffffffffffffffffffffffffffffffffffffffff82169050919050565b60006100a88261007d565b9050919050565b6100b88161009d565b81146100c357600080fd5b50565b6000815190506100d5816100af565b92915050565b6000602082840312156100f1576100f0610078565b5b60006100ff848285016100c6565b91505092915050565b610a9f806101176000396000f3fe608060405234801561001057600080fd5b506004361061004c5760003560e01c80635baecc51146100515780635d036d1a1461006d5780638872e2111461009d578063dae7a13c146100bb575b600080fd5b61006b60048036038101906100669190610734565b6100eb565b005b61008760048036038101906100829190610734565b61050e565b604051610094919061078f565b60405180910390f35b6100a5610648565b6040516100b29190610809565b60405180910390f35b6100d560048036038101906100d09190610734565b61066c565b6040516100e2919061078f565b60405180910390f35b8060008054906101000a900473ffffffffffffffffffffffffffffffffffffffff1673ffffffffffffffffffffffffffffffffffffffff1663616069406040518163ffffffff1660e01b8152600401602060405180830381865afa158015610157573d6000803e3d6000fd5b505050506040513d601f19601f8201168201806040525081019061017b9190610839565b81106101bc576040517f08c379a00000000000000000000000000000000000000000000000000000000081526004016101b3906108c3565b60405180910390fd5b600160008473ffffffffffffffffffffffffffffffffffffffff1673ffffffffffffffffffffffffffffffffffffffff168152602001908152602001600020600083815260200190815260200160002060009054906101000a900460ff161561025a576040517f08c379a000000000000000000000000000000000000000000000000000000000815260040161025190610955565b60405180910390fd5b60008054906101000a900473ffffffffffffffffffffffffffffffffffffffff1673ffffffffffffffffffffffffffffffffffffffff166318906287836040518263ffffffff1660e01b81526004016102b39190610984565b602060405180830381865afa1580156102d0573d6000803e3d6000fd5b505050506040513d601f19601f820116820180604052508101906102f49190610839565b60008054906101000a900473ffffffffffffffffffffffffffffffffffffffff1673ffffffffffffffffffffffffffffffffffffffff16632fe91d3f84866040518363ffffffff1660e01b815260040161034f9291906109ae565b602060405180830381865afa15801561036c573d6000803e3d6000fd5b505050506040513d601f19601f820116820180604052508101906103909190610839565b106103d0576040517f08c379a00000000000000000000000000000000000000000000000000000000081526004016103c790610a49565b60405180910390fd5b60008054906101000a900473ffffffffffffffffffffffffffffffffffffffff1673ffffffffffffffffffffffffffffffffffffffff16631454507683856040518363ffffffff1660e01b815260040161042b9291906109ae565b600060405180830381600087803b15801561044557600080fd5b505af1158015610459573d6000803e3d6000fd5b5050505060018060008573ffffffffffffffffffffffffffffffffffffffff1673ffffffffffffffffffffffffffffffffffffffff168152602001908152602001600020600084815260200190815260200160002060006101000a81548160ff021916908315150217905550818373ffffffffffffffffffffffffffffffffffffffff167f3a2f2023edb3607e15cddcfb04000cd48ff18dfd4b74ffa2246f4c68871f90ca60405160405180910390a3505050565b60008160008054906101000a900473ffffffffffffffffffffffffffffffffffffffff1673ffffffffffffffffffffffffffffffffffffffff1663616069406040518163ffffffff1660e01b8152600401602060405180830381865afa15801561057c573d6000803e3d6000fd5b505050506040513d601f19601f820116820180604052508101906105a09190610839565b81106105e1576040517f08c379a00000000000000000000000000000000000000000000000000000000081526004016105d8906108c3565b60405180910390fd5b600160008573ffffffffffffffffffffffffffffffffffffffff1673ffffffffffffffffffffffffffffffffffffffff168152602001908152602001600020600084815260200190815260200160002060009054906101000a900460ff1691505092915050565b60008054906101000a900473ffffffffffffffffffffffffffffffffffffffff1681565b60016020528160005260406000206020528060005260406000206000915091509054906101000a900460ff1681565b600080fd5b600073ffffffffffffffffffffffffffffffffffffffff82169050919050565b60006106cb826106a0565b9050919050565b6106db816106c0565b81146106e657600080fd5b50565b6000813590506106f8816106d2565b92915050565b6000819050919050565b610711816106fe565b811461071c57600080fd5b50565b60008135905061072e81610708565b92915050565b6000806040838503121561074b5761074a61069b565b5b6000610759858286016106e9565b925050602061076a8582860161071f565b9150509250929050565b60008115159050919050565b61078981610774565b82525050565b60006020820190506107a46000830184610780565b92915050565b6000819050919050565b60006107cf6107ca6107c5846106a0565b6107aa565b6106a0565b9050919050565b60006107e1826107b4565b9050919050565b60006107f3826107d6565b9050919050565b610803816107e8565b82525050565b600060208201905061081e60008301846107fa565b92915050565b60008151905061083381610708565b92915050565b60006020828403121561084f5761084e61069b565b5b600061085d84828501610824565b91505092915050565b600082825260208201905092915050565b7f496e76616c6964206576656e7420494400000000000000000000000000000000600082015250565b60006108ad601083610866565b91506108b882610877565b602082019050919050565b600060208201905081810360008301526108dc816108a0565b9050919050565b7f5469636b657420616c72656164792069737375656420746f207468697320616460008201527f647265737320666f7220746865206576656e7400000000000000000000000000602082015250565b600061093f603383610866565b915061094a826108e3565b604082019050919050565b6000602082019050818103600083015261096e81610932565b9050919050565b61097e816106fe565b82525050565b60006020820190506109996000830184610975565b92915050565b6109a8816106c0565b82525050565b60006040820190506109c36000830185610975565b6109d0602083018461099f565b9392505050565b7f4e6f206d6f7265207469636b65747320617661696c61626c6520666f7220746860008201527f6973206576656e74000000000000000000000000000000000000000000000000602082015250565b6000610a33602883610866565b9150610a3e826109d7565b604082019050919050565b60006020820190508181036000830152610a6281610a26565b905091905056fea26469706673582212201d90c80bb32cac62bc1536383f9049a7c573ee0c422d7f8e0a49ab2ddc5d982864736f6c63430008110033",
  "immutableReferences": {},
  "source": "// SPDX-License-Identifier: MIT\npragma solidity ^0.8.0;\n\nimport \"./EventManagement.sol\";\n\ncontract Ticket {\n    EventManagement public eventManagement;\n\n    // Mapping to store ticket ownership\n    mapping(address => mapping(uint256 => bool)) public tickets;\n\n    // Event for ticket issuance\n    event TicketIssued(address indexed holder, uint256 indexed eventId);\n\n    // Modifier to check if an event is valid\n    modifier validEvent(uint256 _eventId) {\n        require(_eventId < eventManagement.getTotalEvents(), \"Invalid event ID\");\n        _;\n    }\n\n    // Constructor to set the EventManagement contract address\n    constructor(address _eventManagementAddress) {\n        eventManagement = EventManagement(_eventManagementAddress);\n    }\n\n    // Function to issue ticket to an address for a specific event\n    function issueTicket(address _to, uint256 _eventId) public validEvent(_eventId) {\n        require(!tickets[_to][_eventId], \"Ticket already issued to this address for the event\");\n        require(eventManagement.ticketsSold(_eventId, _to) < eventManagement.getTotalTickets(_eventId), \"No more tickets available for this event\");\n        \n        eventManagement.incrementTicketsSold(_eventId, _to);\n        tickets[_to][_eventId] = true;\n        emit TicketIssued(_to, _eventId);\n    }\n\n    // Function to check if a ticket is valid for an event\n    function isTicketValid(address _holder, uint256 _eventId) public view validEvent(_eventId) returns (bool) {\n        return tickets[_holder][_eventId];\n    }\n}\n",
  "sourcePath": "/home/lothbrok/Documents/projects/ticketing-system/contracts/Ticket.sol",
  "compiler": {
    "name": "solc",
    "version": "0.8.17+commit.8df45f5f.Emscripten.clang"
  },
  "schemaVersion": "3.4.16",
  "updatedAt": "2024-03-14T08:10:14.030Z",
  "networkType": "ethereum",
  "devdoc": {
    "kind": "dev",
    "methods": {},
    "version": 1
  },
  "userdoc": {
    "kind": "user",
    "methods": {},
    "version": 1
  }
}